:020000040802F0
:10000000C00600203D0F02082D0302082F0302083E
:1000100033030208370302083B0302080000000014
:100020000000000000000000000000003F03020884
:1000300041030208000000004303020845030208D0
:10004000570F0208570F0208570F0208570F0208F0
:10005000570F0208570F0208570F0208570F0208E0
:10006000570F0208570F0208570F0208570F0208D0
:10007000570F0208570F0208570F0208570F0208C0
:10008000570F0208570F0208570F0208570F0208B0
:10009000570F0208570F0208570F0208570F0208A0
:1000A000570F0208570F0208570F0208570F020890
:1000B000570F0208570F0208570F0208570F020880
:1000C000570F0208570F0208570F0208570F020870
:1000D000570F0208850D0208570F0208570F020834
:1000E000570F0208570F0208570F0208570F020850
:1000F000570F0208570F0208570F0208570F020840
:10010000570F0208570F0208570F0208570F02082F
:10011000570F0208570F0208570F0208570F02081F
:10012000570F0208570F0208570F0208570F02080F
:10013000570F0208570F0208570F0208570F0208FF
:10014000570F0208570F0208570F0208570F0208EF
:10015000570F0208570F0208570F0208570F0208DF
:10016000570F0208570F0208570F0208570F0208CF
:10017000570F0208570F0208570F0208570F0208BF
:10018000570F0208570F020800F002F800F03CF881
:100190000AA090E8000C82448344AAF10107DA45E2
:1001A00001D100F031F8AFF2090EBAE80F0013F0F8
:1001B000010F18BFFB1A43F001031847CC200000C1
:1001C000EC200000103A24BF78C878C1FAD8520752
:1001D00024BF30C830C144BF04680C6070470000C1
:1001E0000023002400250026103A28BF78C1FBD840
:1001F000520728BF30C148BF0B6070471FB502F0DF
:100200003DF81FBD10B510BD02F009F81146FFF70B
:10021000F5FF00F009F802F027F803B4FFF7F2FF4A
:1002200003BC00F04BFD00004FF4A06000F0A6FE00
:10023000192000F0C1FC4FF4E13000F04CFD00F05B
:100240007DF900F099F900F049FB00F0E9FA62E06D
:100250003148006808B9012000E000202E490860FC
:10026000092000F0C9F9054600F0E5FA044600F05F
:1002700053FBB42000F002FD00F059FB00F072FBCC
:1002800026480068012837D11021254801F0ACFE2E
:100290006421234801F0A8FE3A21214801F0A4FE80
:1002A00029461F4801F0A0FEE1B21D4801F09CFE66
:1002B000210A1B4801F098FE1A480178184801F0FD
:1002C00093FE18480088C0F30721154801F08CFE02
:1002D00014480068C0F30741114801F085FE114839
:1002E0000068010E0E4801F07FFE00210C4801F06D
:1002F0007BFE0020094908600B480068012803D1F3
:1003000000200549091D08600748006818B9012048
:100310000149091D08609BE7840241423C0000201E
:10032000001001402800002038000020704700BF66
:10033000FEE700BFFEE700BFFEE700BFFEE7704735
:1003400070477047704700000CB500200190009086
:100350006E48006840F480306C49086008460068C8
:1003600000F4003010B10120009001E00020009066
:100370000098012846D165484030006840F0805020
:100380006249403108606248006840F4404060497A
:1003900008605E48083000685C490831086008461B
:1003A000006840F4004008600846006840F4A0502F
:1003B00008605848091F0860081F006840F08070F6
:1003C000091F086000BF5148006800F00070002855
:1003D000F9D040F20570504908604C480830006878
:1003E00020F003004949083108600846006840F0E1
:1003F0000200086000BF45480830006800F00C00AB
:100400000828F8D10CBD10B54448006840F47000CD
:10041000424908603D48006840F001003B490860DF
:1004200000203A4908310860384800683C490840D3
:10043000364908603B48091D0860081F006820F421
:100440008020091F0860002030490C310860FFF748
:100450007BFF354831498039086010BD70B50020F8
:100460000022022300240221284D08352D6805F0C2
:100470000C0020B1042806D0082834D107E02B4D09
:100480002B4E356033E02B4D294E35602FE01F4D4C
:100490002D1D2D68C5F380541C4D2D1D2D6805F0B4
:1004A0003F0154B1234DB5FBF1F5184E361D3668AA
:1004B000C6F3881605FB06F209E01C4DB5FBF1F505
:1004C000124E361D3668C6F3881605FB06F20F4D30
:1004D0002D1D2D68C5F301456D1C6B00B2FBF3F5B6
:1004E000134E356003E0114D114E356000BF00BF63
:1004F000064D08352D68C5F303150F4E705D0C4D84
:100500002D68C5400A4E356070BD000000380240BD
:100510000070004008544007003C024088ED00E0B5
:10052000FFFFF6FE10300024000002080024F40053
:100530000000002040787D01040000201CB501214E
:10054000042001F0E1FA0620009001208DF804005B
:1005500000208DF806008DF8050001208DF80700B9
:100560006946044801F032F80621024801F0AAF871
:100570001CBD00000008024000B58DB00121202004
:1005800001F0C2FA0121880201F01AFB08200B9049
:1005900001208DF830008DF8320000208DF83300F6
:1005A0000BA92C4801F012F80121880201F05DFB33
:1005B00000214FF4806001F058FB002007900A9062
:1005C00009904FF48030089007A800F081FD0020CA
:1005D00001908DF808008DF8090003900590012026
:1005E0008DF8180001A91C4800F043FD01211A48AC
:1005F00000F085FD0DB000BD10B5044607230122B3
:100600002146154800F0BBFD134800F014FE00BF62
:100610000221114800F030FF0028F9D00E4800F008
:1006200046FE10BD2DE9F04107460C460025002688
:1006300008E03846FFF7E0FF0544052000F01EFB08
:10064000701CC6B2A642F4DBB5FBF4F080B2BDE884
:10065000F0810000001402400022014010B54FF468
:1006600080419A4801F02EF8322000F0BFFA4FF492
:100670008041964801F028F84FF4FA7000F0B6FA7D
:100680004FF48041914801F01DF8282000F0AEFAA7
:1006900000BF4FF480418D4800F0FAFF0028F8D1E8
:1006A0004FF4FA7000F0A2FA4FF48041874801F04D
:1006B00009F8204610BD70B50446082523E04FF424
:1006C0008041824801F000F8052000F08FFA04F024
:1006D000010028B14FF480417C4800F0F3FF04E0B2
:1006E0004FF48041794800F0EFFF412000F07EFA9E
:1006F0004FF48041754800F0E5FF022000F076FAE3
:100700006410681EC5B2002DD9DC70BD70B54FF401
:1007100080416E4800F0D6FF052000F067FA0825FA
:1007200025E064104FF48041684800F0CDFF0520BB
:1007300000F05CFA4FF48041644800F0C3FF0520EC
:1007400000F054FA4FF48041604800F0A1FF10B16E
:1007500044F0800401E004F07F04412000F046FAF8
:100760004FF48041594800F0ADFF681EC5B2002D1E
:10077000D7DC204670BD70B504463320FFF79BFFE1
:10078000082505E0FFF7C2FF2070641C681EC5B293
:10079000002DF7DC70BD70B506460C461546FFF718
:1007A0005DFFCC20FFF787FF4E20FFF784FF284630
:1007B000FFF781FF2046FFF77EFF3046FFF77BFF04
:1007C000FFF74CFFCC20FFF776FF4820FFF773FFC1
:1007D00000BF4FF480413D4800F05AFF0028F8D098
:1007E00070BD10B5FFF73AFFCC20FFF764FF44203F
:1007F000FFF761FF10BD1CB50121082001F0CFF902
:100800004FF48040009001208DF804008DF8060020
:1008100002208DF8050069462C4800F0D7FE1CBD6B
:1008200010B5FFF7E8FF8A2264217F20FFF7B3FFAE
:10083000FFF7D7FF10BD10B5FFF710FFCC20FFF773
:100840003AFFBE20FFF737FFFFF760FF204908702F
:10085000FFF75CFF1F490870FFF700FF1D48007895
:1008600000F08000A8B11B480078C043C0B240F03F
:1008700008001849087016480078C043401C144905
:1008800008700846007820B912480078401C1149C9
:1008900008701048007800010D49097800EB11102C
:1008A0000C4908700A48007800F00F000A49085CFB
:1008B000074908700748007800EB8000097801EBD1
:1008C0004004FFF78EFF204610BD0000000C0240E0
:1008D00014000020150000201600002010B500F0C4
:1008E0005BF810BD10B5044600F093F8462000F008
:1008F00011F900BF00F0BCF80028FBD1204600F041
:1009000009F900BF00F0B4F80028FBD100F09AF814
:10091000052000F0B3F910BD10B50120FFF7E2FF8C
:100920000720FFF7DFFF2020FFF7DCFF10BD10B529
:1009300000F06FF8472000F0EDF800BF00F098F8E5
:100940000028FBD1012000F009F9104908700020AF
:1009500000F004F90D49487000F074F8052000F02B
:100960008DF910BD094800780949086007484078AA
:10097000096800EB012006490860084600684FF44A
:100980007A71484303490860704700002C0000203A
:1009900030000020280000201CB50121082001F0B3
:1009A000FEF848F20100009001208DF804000020BC
:1009B0008DF8060002208DF8050069467B4800F09E
:1009C00005FE01207A4908607A49C1F880021CBD01
:1009D0001CB50120009002208DF8050001208DF843
:1009E00004008DF806006946704800F0EFFD1CBD5C
:1009F0001CB50120009000208DF8040002208DF825
:100A0000050001208DF807006946684800F0DEFD0A
:100A10001CBD10B5FFF7DCFF012065493C390860BB
:100A20006449C1F8BC02042000F0E0F800206049ED
:100A30003C390860042000F0D9F800205D49C1F875
:100A4000BC0210BD10B5FFF7C3FF00205849086075
:100A50005849C1F88002042000F0C8F80120544928
:100A600008605449C1F88002042000F0BFF810BDAE
:100A700010B5002401204E493C39086000F0B6F85A
:100A800001204C49C1F8BC0200F0B0F8FFF7B0FFFC
:100A900007E0601CC4B2FA2C03DDFFF7D3FF01208E
:100AA00010BD4348BC3800680028F2D140490860B6
:100AB00000BFF5E710B500203D490860FFF788FF4B
:100AC00000203C49C1F88002022000F08FF801208C
:100AD00037490860022000F089F800203549C1F844
:100AE000BC0210BD10B5002031490860FFF770FF4F
:100AF00001203049C1F88002022000F077F801207F
:100B00002B490860022000F071F800202949C1F843
:100B1000BC0210BD70B50446FFF75AFF00202449FF
:100B20000860002517E0E00921493C3908606006AB
:100B3000040E022000F05AF801201E49C1F8BC0240
:100B4000022000F053F8002019490860022000F04C
:100B50004DF8681CC5B2082DE5DB70BD70B50546C3
:100B60000024FFF745FF002616E00020104908602A
:100B7000022000F03BF801200E49C1F8BC026006DB
:100B8000040E0B48BC38006808B1601CC4B20120D8
:100B900000F02CF8701CC6B2082EE6DB15B9FFF782
:100BA000A1FF01E0FFF786FF204670BD000C024068
:100BB000BC8241420080414210B504466FF00400FF
:100BC00000F02EFAE11704EB5171C1F3C701394A65
:100BD00011701046007800EB4001C1EBC0104FF6D9
:100BE000FF7101EAC0003449088010BD0146314A56
:100BF00012784A434FF0E0235A6100229A611A4664
:100C0000126942F001021A6100BF4FF0E022106940
:100C100000F001021AB100F48032002AF5D04FF042
:100C2000E022126922F001024FF0E0231A61002253
:100C30009A6170470146204A12884A434FF0E023E8
:100C40005A6100229A611A46126942F001021A6141
:100C500000BF4FF0E022106900F001021AB100F469
:100C60008032002AF5D04FF0E022126922F0010212
:100C70004FF0E0231A6100229A61704770B5044674
:100C80004FF4077094FBF0F0C6B24FF4077094FB7A
:100C9000F0F100FB114085B205E04FF40770FFF75B
:100CA000C9FF701EC6B2002EF7D115B12846FFF756
:100CB000C1FF70BD340000203600002000BF704727
:100CC00000BF9A4A128802F04002002AF9D0C2B24C
:100CD000964B9A80704710B588B0044601210846AB
:100CE00000F012FF0121102000F06AFF0722092105
:100CF0008F4800F0F6FC07220A218D4800F0F1FC35
:100D00004FF4C060069002208DF81C008DF81D0085
:100D100000208DF81E0001208DF81F0006A98448D0
:100D200000F054FC02940020ADF80C00ADF80E0069
:100D3000ADF81000ADF814000C20ADF8120002A9B7
:100D40007A4801F09EF80121784801F022F940210B
:100D5000764801F00CFA012240F22551734801F067
:100D6000D4F925208DF8040003208DF805008DF8B6
:100D7000060001208DF8070001A800F004F962B612
:100D800008B010BD10B540F22551684801F0F8F9DF
:100D9000B8B1664801F032F94F2802D10120654907
:100DA0000860624801F02AF9532802D10020614905
:100DB00008605E4801F022F9442802D101205E4912
:100DC000086010BDF0B503460D46164600272946BB
:100DD0000A2E03D0002008702846F0BD33B9302019
:100DE00001F8010B002008702846F6E7002B03DA13
:100DF0002D2001F8010B5B4242F210720DE093FBD3
:100E0000F2F404B937B104F1300001F8010B04FB2E
:100E1000123301270A2092FBF0F2002AEFDC0020B7
:100E200008702846D9E70FB470B586B006460CA8FE
:100E3000019073E00B9800785C281CD10B98401C43
:100E40000B9000786E2809D072280FD10D21304602
:100E500001F0CAF80B98401C0B900BE00A213046B9
:100E600001F0C2F80B98401C0B9003E00B98401C5B
:100E70000B9000BF4BE00B980078252840D10B98D1
:100E8000401C0B900078642818D0732833D1019847
:100E900010C801900BE02178304601F0A5F800BFA2
:100EA0004021304601F056F90028F9D0641C207822
:100EB0000028F0D10B98401C0B9020E0019820C82E
:100EC00001900A2202A92846FFF77CFF02AC0BE042
:100ED0002178304601F088F800BF4021304601F00B
:100EE00039F90028F9D0641C20780028F0D10B983B
:100EF000401C0B9003E00B98401C0B9000BF06E0D9
:100F00000B9810F8011B0B90304601F06DF800BFF4
:100F10004021304601F01EF90028F9D00B980078E6
:100F2000002887D106B070BC5DF814FB00100140AA
:100F300000000240380000203C00002009488047A3
:100F400009480047FEE7FEE7FEE7FEE7FEE7FEE7AB
:100F5000FEE7FEE7FEE7FEE704480549054A064BC3
:100F6000704700000704020889010208C000002041
:100F7000C0060020C0020020C00200203249014308
:100F8000324A1160704770B5002100230F22C478E7
:100F90001CB32E4C246804F4E064C4F5E064C4F38C
:100FA0000721C1F10404E3B20A4144789C40E1B254
:100FB0008478144021430C07210E254C0578615597
:100FC000047804F01F050124AC4005786D11AD00D4
:100FD00005F1E025C5F8004109E0047804F01F059B
:100FE0000124AC401B4D0678761145F8264070BDB3
:100FF000194A0A400243154B1B1F1A60704739B14A
:10100000124A121D12680243104B1B1D1A6006E0A3
:101010000E4A121D126882430C4B1B1D1A6070474A
:10102000042808D14FF0E021096941F004014FF094
:10103000E022116107E04FF0E021096921F004018D
:101040004FF0E022116170470000FA050CED00E05E
:1010500000E400E080E100E080FFFF1F10B5012107
:10106000080200F002FE00214FF4807000F0FDFD48
:1010700010BD30B50246002000235068F84C2040D7
:101080000D790C6844EA0524204350609068F54CC3
:101090002040D1E903542C438D682C434D7944EA18
:1010A000450420439060D06A20F470000C7D641EDB
:1010B000E4B2234340EA0350D06230BD0021016016
:1010C000017141718160C160016101210175704749
:1010D0000021E54A1168E54A1140D0E900231A438E
:1010E00083681A43C3681A431143E14AC2F80413E0
:1010F00070470021016041608160C160704721B18B
:10110000826842F00102826003E0826822F00102FC
:10111000826070470A4600214168D64B194011434E
:10112000416070474162826270470A46002141680F
:1011300021F01F0111434160704738B1CA49096865
:1011400041F40001CA4AC2F8041306E0C64909681E
:1011500021F40001C64AC2F80413704738B1C249ED
:10116000096841F48001C24AC2F8041306E0BE498E
:10117000096821F48001BE4AC2F804137047F0B533
:1011800004460D4600200021092D11DDE068A5F17F
:101190000A0606EB4607072606FA07F18843A5F17B
:1011A0000A0606EB460603FA06F10843E0600CE087
:1011B000206905EB4507072606FA07F1884305EB8A
:1011C000450603FA06F108432061072A0FDA606B2F
:1011D000561E06EB86071F2606FA07F18843561EA1
:1011E00006EB860605FA06F10843606322E00D2A45
:1011F0000FDA206BD61F06EB86071F2606FA07F1CB
:101200008843D61F06EB860605FA06F108432063DD
:1012100010E0E06AA2F10D0606EB86071F2606FA2B
:1012200007F18843A2F10D0606EB860605FA06F1E2
:101230000843E062F0BD816841F080418160704701
:10124000014600208A6802F080420AB1012000E0D5
:101250000020704721B1826842F48062826003E01E
:10126000826822F480628260704721B1826842F015
:101270000202826003E0826822F00202826070470C
:1012800010B50A4600210023416821F46041531E35
:1012900041EA4331416010BD21B1426842F400622D
:1012A000426003E0426822F40062426070470146F7
:1012B000C86C80B270476C48001D0068704721B14F
:1012C000826842F48072826003E0826822F4807255
:1012D0008260704721B1826842F40072826003E04C
:1012E000826822F400728260704738B15E490968F2
:1012F00041F400515E4AC2F8041306E05A490968F5
:1013000021F400515A4AC2F804137047F0B504465C
:101310001546002000220026092911DDE068A1F110
:101320000A0707EB470C072707FA0CF29043A1F1D5
:101330000A0707EB470703FA07F21043E0600CE0E7
:10134000206901EB410C072707FA0CF2904301EBEF
:10135000410703FA07F210432061A06BC0F3015666
:10136000EF1C06F1010CA7EB0C0707EB870C1F27FE
:1013700007FA0CF29043EF1C06F1010CA7EB0C07E7
:1013800007EB870701FA07F21043A063F0BD10B521
:101390000A4600210023816B21F44011531E41EACB
:1013A0000351816310BD08B5002300930090009B9A
:1013B0000B440093009B1A6008BD0A460021816817
:1013C00021F470211143816070470A460021816831
:1013D00021F44011114381607047816841F480011C
:1013E00081607047014600208A6802F480020AB1D9
:1013F000012000E00020704721B1426842F4806281
:10140000426003E0426822F480624260704721B18A
:10141000426842F48052426003E0426822F4805203
:101420004260704708B5024600200090009201F12A
:101430002800009B184400900098006880B208BD06
:1014400010B50B460021D9B2012404FA01F11AB1FA
:1014500044680C43446002E044688C43446010BD1F
:10146000FFFEFFFCFDF7FFC004230140E030FCFF5E
:1014700000200140FFFD3FFF0246002013680B40A3
:101480000BB1012000E000207047CA4302607047A2
:1014900070B502460020002300240B125568012677
:1014A0008E4005EA060415681D4015B10CB10120F7
:1014B00000E0002070BD00220A12D3430360704791
:1014C00010B504469848844208D10121084600F02E
:1014D00088FB0021012000F084FB76E093488442E1
:1014E00008D10121022000F07CFB0021022000F045
:1014F00078FB6AE08E48844208D10121042000F084
:1015000070FB0021042000F06CFB5EE089488442FF
:1015100008D10121082000F064FB0021082000F020
:1015200060FB52E08448844208D10121102000F081
:1015300058FB0021102000F054FB46E07F48844215
:1015400008D10121202000F04CFB0021202000F0D8
:1015500048FB3AE07A48844208D10121402000F05B
:1015600040FB0021402000F03CFB2EE07548844207
:1015700008D10121802000F034FB0021802000F000
:1015800030FB22E07048844208D10121801500F030
:1015900028FB0021A01500F024FB16E06B488442D4
:1015A00008D10121401500F01CFB0021601500F05E
:1015B00018FB0AE06648844207D10121001500F0BB
:1015C00010FB0021201500F00CFB10BDF0B50A4601
:1015D00000210023002400BF3DE0012505FA01F3AE
:1015E000156805EA03049C4234D105684F000326C0
:1015F000BE40B543056015794E00B54006683543D9
:1016000005601579012D02D01579022D16D1856856
:101610004F000326BE40B543856055794E00B54066
:10162000866835438560456801268E40B543456030
:10163000456896798E40B6B235434560C5684F001F
:101640000326BE40B543C560D5794E00B540C66897
:101650003543C560491C1029BFD3F0BD4FF6FF715B
:1016600001600021017141718171C171704708B53C
:101670004FF480320092009A0A430092009AC261AD
:10168000C161009AC261C2690092C269009208BD3C
:101690000246002013690B400BB1012000E000203E
:1016A00070470146086980B27047024600205369BE
:1016B0000B400BB1012000E0002070470146486953
:1016C00080B2704701837047418370470AB101833C
:1016D00000E0418370474161704742694A4042617E
:1016E0007047F0B5002300244D07ED0E02FA05F314
:1016F000CE1000F1200555F826504E07F70E0F26A4
:10170000BE40B543CF1000F1200646F82750CE105A
:1017100000F1200555F8265045EA0304CE1000F1EB
:10172000200545F82640F0BD0000024000040240BC
:1017300000080240000C0240001002400014024069
:1017400000180240001C0240002002400024024019
:1017500000280240F948006840F00100F74908609D
:101760000020F64908310860F4480068F449084050
:10177000F2490860F348091D0860F348EF498431D5
:101780000860F0481038091D0860EC48006820F433
:101790008020EA4908600020E8490C310860E749E8
:1017A0008C31086070470021E44A921C1170114688
:1017B0000870704710B501460022002300204A112E
:1017C000012A02D1DD4C236808E0022A03D1DB4C58
:1017D0007034236802E0D94C7434236801F01F028E
:1017E000012494401C400CB1012000E0002010BDF9
:1017F00038B5002000900024002500BF3120FFF7FD
:10180000D9FF05460098401C0090D04900988842B6
:1018100001D0002DF2D03120FFF7CCFF08B1012418
:1018200000E00024204638BD01460020C34A10686D
:1018300020F0F80040EAC10010607047C449086019
:1018400070470021BD4A703211701170012802D01A
:1018500004280AD104E00121B84A7032117005E071
:101860000521B64A7032117000E000BF00BF70471A
:10187000B8490860704770B5049C41EA821501269A
:10188000C6EB530645EA0645054345EA0465AB4EFB
:10189000361D356070BDAE4908667047820142EA68
:1018A0000172A64B84331A607047A9498866704755
:1018B00010B5830143EA016343EA02739F4C883405
:1018C000236010BDA24908677047A149C8647047EA
:1018D00002460020994B0833186820F0EC6042EA79
:1018E00001031843954B08331860704702460020E7
:1018F000924B0833186820F0784042EA01031843FD
:101900008E4B083318607047014600208B4A08321E
:10191000106820F0030008431060704787480830C3
:10192000006800F00C00704701460020834A08322E
:10193000106820F0F0000843106070470146002056
:101940007E4A0832106820F4E05008431060704767
:1019500001460020794A0832106820F4604040EACD
:10196000C10010607047F0B500210022002402255C
:1019700000260223714F08373F6807F00C0121B1A0
:10198000042905D0082937D105E0734F076036E0F8
:10199000724F076033E0694F3F1D3F68C7F38056C1
:1019A000664F3F1D3F6807F03F036EB16B4FB7FBBB
:1019B000F3F7DFF888C10CF1040CDCF800C0CCF3BD
:1019C000881C07FB0CF40CE0634FB7FBF3F7DFF860
:1019D0006CC10CF1040CDCF800C0CCF3881C07FBD4
:1019E0000CF4564F3F1D3F68C7F301477F1C7D0035
:1019F000B4FBF5F7076002E0574F076000BF00BF78
:101A00004E4F08373F6807F0F0010909544F7A5CE0
:101A10000768D7404760494F08373F6807F4E051EF
:101A2000890A4F4F7A5C4768D7408760434F083731
:101A30003F6807F46041490B494F7A5C4768D740DB
:101A4000C760F0BD002100F44072B2F5407F0AD1BA
:101A50003A4A0832116821F4F811424A024011430F
:101A6000364A08321160354A70321268C0F30B03EF
:101A70001A43324B70331A60704736494439086054
:101A800070473449403908607047374908607047EB
:101A900001460020294A8C32106820F01F004A1E9F
:101AA0001043264A8C321060704701460020234ABA
:101AB0008C32106820F4F8504A1E40EA02201F4A77
:101AC0008C3210607047014600201C4A8C3210682E
:101AD00020F4401008431060704701460020174A68
:101AE0008C32106820F440000843106070470146B3
:101AF0000020124A8C32106820F4403008431060F5
:101B000070471A490860704739B10C4A3032126880
:101B100002430A4B30331A6006E0084A303212683A
:101B20008243064B30331A60704709B3034A34329C
:101B300012680243014B34331A601EE00038024041
:101B4000FFFFF6EA103000240030002000FFFF0005
:101B500000004742800E47420024F40040787D0197
:101B60004A000020FFFCFF0F5C014742E0114742A2
:101B70008F4A126882438E4B1A60704739B18C4A83
:101B8000121D126802438A4B1B1D1A6006E0884A28
:101B9000121D12688243864B1B1D1A60704739B1B3
:101BA000834A0C3212680243814B0C331A6006E000
:101BB0007F4A0C32126882437D4B0C331A607047A7
:101BC00039B17B4A103212680243794B10331A60E4
:101BD00006E0774A103212688243754B10331A6060
:101BE000704739B1724A243A12680243704B243B61
:101BF0001A6006E06E4A243A126882436C4B243B1A
:101C00001A60704739B16A4A203A12680243684B39
:101C1000203B1A6006E0664A203A12688243644B11
:101C2000203B1A60704739B1614A1C3A126802437E
:101C30005F4B1C3B1A6006E05D4A1C3A1268824307
:101C40005B4B1C3B1A60704739B1594A143A126811
:101C50000243574B143B1A6006E0554A143A126887
:101C60008243534B143B1A60704739B1504A103AC3
:101C7000126802434E4B103B1A6006E04C4A103A81
:101C8000126882434A4B103B1A60704739B1484A88
:101C90001C3212680243464B1C331A6006E0444A69
:101CA0001C3212688243424B1C331A60704739B1B0
:101CB0003F4A2032126802433D4B20331A6006E04F
:101CC0003B4A203212688243394B20331A607047F6
:101CD00039B1374A243212680243354B24331A6033
:101CE00006E0334A243212688243314B24331A60AF
:101CF000704739B12E4A2C32126802432C4B2C33D8
:101D00001A6006E02A4A2C3212688243284B2C3390
:101D10001A60704739B1264A303212680243244BA8
:101D200030331A6006E0224A303212688243204B78
:101D300030331A607047012808D11D493C310968C9
:101D400041F008011A4A3C32116007E018493C3161
:101D5000096821F00801164A3C321160704739B118
:101D6000134A273A12780243114B273B1A7006E0B8
:101D70000F4A273A127882430D4B273B1A7070475F
:101D80000B484030006840F08070094940310860DD
:101D9000704701460020064A283A12680A400AB1F4
:101DA000012000E000207047014926390870704783
:101DB0003438024010B50446FD48844208D1012160
:101DC0001020FFF752FF00211020FFF74EFF57E0D1
:101DD000F848844209D101214804FFF735FF00216A
:101DE0004FF40030FFF730FF4AE0F348844209D156
:101DF00001218804FFF728FF00214FF48020FFF71E
:101E000023FF3DE0ED48844209D10121C804FFF7DA
:101E10001BFF00214FF40020FFF716FF30E0E848D9
:101E2000844209D101210805FFF70EFF00214FF47C
:101E30008010FFF709FF23E0E248844208D1012126
:101E40002020FFF712FF00212020FFF70EFF17E0F0
:101E5000DD48844209D101218807FFF7F5FE002102
:101E60004FF08040FFF7F0FE0AE0D848844207D1E7
:101E700001214005FFF7E8FE00216005FFF7E4FEC1
:101E800010BD2DE9FF4705460E460024A14600BFC0
:101E9000A046B08900B100BF2C8A24F44054F088D9
:101EA00004432C82AC8941F20C608443B0883189B0
:101EB0000843718908430443AC81AC8A24F440741C
:101EC000B0890443AC826846FFF74DFDB8488542AF
:101ED00002D0BC48854202D1DDF80C9001E0DDF86B
:101EE0000890A88900F4004040B109EBC90000EB5C
:101EF000091031684900B0FBF1F707E009EBC900B0
:101F000000EB091031688900B0FBF1F76420B7FBE2
:101F1000F0F004012009642101FB1078A88900F485
:101F2000004040B1322000EBC800B0FBF1F000F0FF
:101F30000700044308E0322000EB08106421B0FBE6
:101F4000F1F000F00F0004432C81BDE8FF874FF44F
:101F50001651016000218180C18001810C214181E5
:101F600000218181704710B502460020108A20F4BC
:101F700070600B884C8823438C882343CC88234390
:101F80001843108210BD0021018041808180C180F2
:101F9000704721B1828942F40052828104E0828933
:101FA0004DF6FF731A4082817047028B02F47F4224
:101FB0000283028B0A430283704721B1828942F473
:101FC0000042828103E08289C2F30E02828170475F
:101FD00021B1828A42F40062828204E0828A4FF256
:101FE000FF731A408282704700BF028802F04002ED
:101FF000002AFAD0C1F3080282807047014688881F
:10200000C0F308007047028A4FF6F0731A4002824C
:10201000028A0A430282704721B1828942F0020299
:10202000828104E082894FF6FD731A4082817047F5
:1020300082894FF2FF731A40828182890A4382812A
:102040007047028A4FF6DF731A400282028A0A43FF
:102050000282704721B1028A42F48042028204E087
:10206000028A4BF6FF731A4002827047818941F061
:1020700001018181704721B1828A42F00802828287
:1020800004E0828A4FF6F7731A4082827047028B0F
:10209000D2B20283028B42EA01220283704721B14D
:1020A000828A42F02002828204E0828A4FF6DF7345
:1020B0001A408282704721B1828A42F010028282E5
:1020C00004E0828A4FF6EF731A4082827047828A58
:1020D0004FF6FB731A408282828A0A4382827047DB
:1020E00021B1828A42F00202828204E0828A4FF6A3
:1020F000FD731A40828270471AB1838A0B43838230
:1021000002E0838A8B4383827047F0B50346002444
:1021100000260025002040F66A17B94200D100BF12
:102120001846C1F3421401F01F06012707FA06F50D
:10213000012C01D10C3004E0022C01D1103000E060
:1021400014301AB107682F43076002E00768AF43F5
:102150000760F0BD02460020B1F5007F00D100BF4E
:1021600013880B400BB1012000E00020704701F400
:102170000072B2F5007F00D100BFCA4302807047F1
:1021800070B50246002400230025002040F66A16A0
:10219000B14200D100BFC1F3421501F01F03012677
:1021A00006FA03F3012D13D19689334017E000009E
:1021B000001001400044004000480040004C004036
:1021C000005000400014014000780040007C0040B6
:1021D000022D02D1168A334001E0968A33400C1258
:1021E000012606FA04F41688344013B10CB101201C
:1021F00000E0002070BD10B50022002340F66A14F4
:10220000A14200D100BF0A1201249440A3B2DC43D2
:10221000048010BD7047704770477047704775461F
:1022200000F028F8AE4605006946534620F0070046
:10223000854618B020B5FEF78FFEBDE820404FF070
:1022400000064FF000074FF000084FF0000B21F0A0
:102250000701AC46ACE8C009ACE8C009ACE8C0096D
:10226000ACE8C0098D4670470446AFF300802046B5
:10227000FDF7D3FF004870475C0000204FF040702E
:10228000E1EE100A70470000A822020800000020BA
:102290005C000000C4010208042302085C00002066
:1022A00064060000E0010208007A030A0000000052
:1022B00000000000010203040607080900000001F5
:1022C00001020303040405060607080809090000C3
:1022D00000000000000000000000000000000000FE
:1022E00000000000000000000000000000000000EE
:1022F00000000000000001020304010203040607BD
:0423000008090000C8
:040000050802018963
:00000001FF
